{
  "contractName": "Dinosaur",
  "abi": [
    {
      "inputs": [
        {
          "internalType": "string",
          "name": "_name",
          "type": "string"
        },
        {
          "internalType": "string",
          "name": "_symbol",
          "type": "string"
        },
        {
          "internalType": "address",
          "name": "_proxyRegistry",
          "type": "address"
        }
      ],
      "stateMutability": "nonpayable",
      "type": "constructor"
    },
    {
      "anonymous": false,
      "inputs": [
        {
          "indexed": true,
          "internalType": "address",
          "name": "owner",
          "type": "address"
        },
        {
          "indexed": true,
          "internalType": "address",
          "name": "approved",
          "type": "address"
        },
        {
          "indexed": true,
          "internalType": "uint256",
          "name": "tokenId",
          "type": "uint256"
        }
      ],
      "name": "Approval",
      "type": "event"
    },
    {
      "anonymous": false,
      "inputs": [
        {
          "indexed": true,
          "internalType": "address",
          "name": "owner",
          "type": "address"
        },
        {
          "indexed": true,
          "internalType": "address",
          "name": "operator",
          "type": "address"
        },
        {
          "indexed": false,
          "internalType": "bool",
          "name": "approved",
          "type": "bool"
        }
      ],
      "name": "ApprovalForAll",
      "type": "event"
    },
    {
      "anonymous": false,
      "inputs": [
        {
          "indexed": false,
          "internalType": "address",
          "name": "userAddress",
          "type": "address"
        },
        {
          "indexed": false,
          "internalType": "address payable",
          "name": "relayerAddress",
          "type": "address"
        },
        {
          "indexed": false,
          "internalType": "bytes",
          "name": "functionSignature",
          "type": "bytes"
        }
      ],
      "name": "MetaTransactionExecuted",
      "type": "event"
    },
    {
      "anonymous": false,
      "inputs": [
        {
          "indexed": true,
          "internalType": "address",
          "name": "previousOwner",
          "type": "address"
        },
        {
          "indexed": true,
          "internalType": "address",
          "name": "newOwner",
          "type": "address"
        }
      ],
      "name": "OwnershipTransferred",
      "type": "event"
    },
    {
      "anonymous": false,
      "inputs": [
        {
          "indexed": true,
          "internalType": "address",
          "name": "from",
          "type": "address"
        },
        {
          "indexed": true,
          "internalType": "address",
          "name": "to",
          "type": "address"
        },
        {
          "indexed": true,
          "internalType": "uint256",
          "name": "tokenId",
          "type": "uint256"
        }
      ],
      "name": "Transfer",
      "type": "event"
    },
    {
      "inputs": [],
      "name": "ERC712_VERSION",
      "outputs": [
        {
          "internalType": "string",
          "name": "",
          "type": "string"
        }
      ],
      "stateMutability": "view",
      "type": "function",
      "constant": true
    },
    {
      "inputs": [],
      "name": "LASTEST_VERSION",
      "outputs": [
        {
          "internalType": "string",
          "name": "",
          "type": "string"
        }
      ],
      "stateMutability": "view",
      "type": "function",
      "constant": true
    },
    {
      "inputs": [],
      "name": "META_DATA_EXTENSION",
      "outputs": [
        {
          "internalType": "string",
          "name": "",
          "type": "string"
        }
      ],
      "stateMutability": "view",
      "type": "function",
      "constant": true
    },
    {
      "inputs": [],
      "name": "PROXY_REGISTRY_ADDRESS",
      "outputs": [
        {
          "internalType": "address",
          "name": "",
          "type": "address"
        }
      ],
      "stateMutability": "view",
      "type": "function",
      "constant": true
    },
    {
      "inputs": [],
      "name": "TOTAL_SUPPLY",
      "outputs": [
        {
          "internalType": "uint256",
          "name": "",
          "type": "uint256"
        }
      ],
      "stateMutability": "view",
      "type": "function",
      "constant": true
    },
    {
      "inputs": [
        {
          "internalType": "address",
          "name": "to",
          "type": "address"
        },
        {
          "internalType": "uint256",
          "name": "tokenId",
          "type": "uint256"
        }
      ],
      "name": "approve",
      "outputs": [],
      "stateMutability": "nonpayable",
      "type": "function"
    },
    {
      "inputs": [
        {
          "internalType": "address",
          "name": "owner",
          "type": "address"
        }
      ],
      "name": "balanceOf",
      "outputs": [
        {
          "internalType": "uint256",
          "name": "",
          "type": "uint256"
        }
      ],
      "stateMutability": "view",
      "type": "function",
      "constant": true
    },
    {
      "inputs": [
        {
          "internalType": "address",
          "name": "userAddress",
          "type": "address"
        },
        {
          "internalType": "bytes",
          "name": "functionSignature",
          "type": "bytes"
        },
        {
          "internalType": "bytes32",
          "name": "sigR",
          "type": "bytes32"
        },
        {
          "internalType": "bytes32",
          "name": "sigS",
          "type": "bytes32"
        },
        {
          "internalType": "uint8",
          "name": "sigV",
          "type": "uint8"
        }
      ],
      "name": "executeMetaTransaction",
      "outputs": [
        {
          "internalType": "bytes",
          "name": "",
          "type": "bytes"
        }
      ],
      "stateMutability": "payable",
      "type": "function",
      "payable": true
    },
    {
      "inputs": [
        {
          "internalType": "uint256",
          "name": "tokenId",
          "type": "uint256"
        }
      ],
      "name": "getApproved",
      "outputs": [
        {
          "internalType": "address",
          "name": "",
          "type": "address"
        }
      ],
      "stateMutability": "view",
      "type": "function",
      "constant": true
    },
    {
      "inputs": [],
      "name": "getChainId",
      "outputs": [
        {
          "internalType": "uint256",
          "name": "",
          "type": "uint256"
        }
      ],
      "stateMutability": "view",
      "type": "function",
      "constant": true
    },
    {
      "inputs": [],
      "name": "getDomainSeperator",
      "outputs": [
        {
          "internalType": "bytes32",
          "name": "",
          "type": "bytes32"
        }
      ],
      "stateMutability": "view",
      "type": "function",
      "constant": true
    },
    {
      "inputs": [
        {
          "internalType": "address",
          "name": "user",
          "type": "address"
        }
      ],
      "name": "getNonce",
      "outputs": [
        {
          "internalType": "uint256",
          "name": "nonce",
          "type": "uint256"
        }
      ],
      "stateMutability": "view",
      "type": "function",
      "constant": true
    },
    {
      "inputs": [],
      "name": "name",
      "outputs": [
        {
          "internalType": "string",
          "name": "",
          "type": "string"
        }
      ],
      "stateMutability": "view",
      "type": "function",
      "constant": true
    },
    {
      "inputs": [],
      "name": "owner",
      "outputs": [
        {
          "internalType": "address",
          "name": "",
          "type": "address"
        }
      ],
      "stateMutability": "view",
      "type": "function",
      "constant": true
    },
    {
      "inputs": [
        {
          "internalType": "uint256",
          "name": "tokenId",
          "type": "uint256"
        }
      ],
      "name": "ownerOf",
      "outputs": [
        {
          "internalType": "address",
          "name": "",
          "type": "address"
        }
      ],
      "stateMutability": "view",
      "type": "function",
      "constant": true
    },
    {
      "inputs": [],
      "name": "renounceOwnership",
      "outputs": [],
      "stateMutability": "nonpayable",
      "type": "function"
    },
    {
      "inputs": [
        {
          "internalType": "address",
          "name": "from",
          "type": "address"
        },
        {
          "internalType": "address",
          "name": "to",
          "type": "address"
        },
        {
          "internalType": "uint256",
          "name": "tokenId",
          "type": "uint256"
        }
      ],
      "name": "safeTransferFrom",
      "outputs": [],
      "stateMutability": "nonpayable",
      "type": "function"
    },
    {
      "inputs": [
        {
          "internalType": "address",
          "name": "from",
          "type": "address"
        },
        {
          "internalType": "address",
          "name": "to",
          "type": "address"
        },
        {
          "internalType": "uint256",
          "name": "tokenId",
          "type": "uint256"
        },
        {
          "internalType": "bytes",
          "name": "data",
          "type": "bytes"
        }
      ],
      "name": "safeTransferFrom",
      "outputs": [],
      "stateMutability": "nonpayable",
      "type": "function"
    },
    {
      "inputs": [
        {
          "internalType": "address",
          "name": "operator",
          "type": "address"
        },
        {
          "internalType": "bool",
          "name": "approved",
          "type": "bool"
        }
      ],
      "name": "setApprovalForAll",
      "outputs": [],
      "stateMutability": "nonpayable",
      "type": "function"
    },
    {
      "inputs": [
        {
          "internalType": "bytes4",
          "name": "interfaceId",
          "type": "bytes4"
        }
      ],
      "name": "supportsInterface",
      "outputs": [
        {
          "internalType": "bool",
          "name": "",
          "type": "bool"
        }
      ],
      "stateMutability": "view",
      "type": "function",
      "constant": true
    },
    {
      "inputs": [],
      "name": "symbol",
      "outputs": [
        {
          "internalType": "string",
          "name": "",
          "type": "string"
        }
      ],
      "stateMutability": "view",
      "type": "function",
      "constant": true
    },
    {
      "inputs": [
        {
          "internalType": "address",
          "name": "from",
          "type": "address"
        },
        {
          "internalType": "address",
          "name": "to",
          "type": "address"
        },
        {
          "internalType": "uint256",
          "name": "tokenId",
          "type": "uint256"
        }
      ],
      "name": "transferFrom",
      "outputs": [],
      "stateMutability": "nonpayable",
      "type": "function"
    },
    {
      "inputs": [
        {
          "internalType": "address",
          "name": "newOwner",
          "type": "address"
        }
      ],
      "name": "transferOwnership",
      "outputs": [],
      "stateMutability": "nonpayable",
      "type": "function"
    },
    {
      "inputs": [],
      "name": "totalSupply",
      "outputs": [
        {
          "internalType": "uint256",
          "name": "",
          "type": "uint256"
        }
      ],
      "stateMutability": "view",
      "type": "function",
      "constant": true
    },
    {
      "inputs": [],
      "name": "baseTokenURI",
      "outputs": [
        {
          "internalType": "string",
          "name": "",
          "type": "string"
        }
      ],
      "stateMutability": "pure",
      "type": "function",
      "constant": true
    },
    {
      "inputs": [
        {
          "internalType": "uint256",
          "name": "_tokenId",
          "type": "uint256"
        }
      ],
      "name": "tokenURI",
      "outputs": [
        {
          "internalType": "string",
          "name": "",
          "type": "string"
        }
      ],
      "stateMutability": "pure",
      "type": "function",
      "constant": true
    },
    {
      "inputs": [
        {
          "internalType": "address",
          "name": "owner",
          "type": "address"
        },
        {
          "internalType": "address",
          "name": "operator",
          "type": "address"
        }
      ],
      "name": "isApprovedForAll",
      "outputs": [
        {
          "internalType": "bool",
          "name": "",
          "type": "bool"
        }
      ],
      "stateMutability": "view",
      "type": "function",
      "constant": true
    },
    {
      "inputs": [
        {
          "internalType": "address",
          "name": "_to",
          "type": "address"
        },
        {
          "internalType": "uint256",
          "name": "_tokenId",
          "type": "uint256"
        }
      ],
      "name": "mintTokenTo",
      "outputs": [],
      "stateMutability": "nonpayable",
      "type": "function"
    }
  ],
  "bytecode": "0x60806040526000600660006101000a81548160ff0219169083151502179055503480156200002c57600080fd5b506040516200429238038062004292833981810160405281019062000052919062000688565b828281600090805190602001906200006c929190620003d6565b50806001908051906020019062000085929190620003d6565b505050620000a86200009c6200010360201b60201c565b6200011f60201b60201c565b620000b983620001e560201b60201c565b80600b60006101000a81548173ffffffffffffffffffffffffffffffffffffffff021916908373ffffffffffffffffffffffffffffffffffffffff16021790555050505062000893565b60006200011a6200026760201b620012d11760201c565b905090565b6000600960009054906101000a900473ffffffffffffffffffffffffffffffffffffffff16905081600960006101000a81548173ffffffffffffffffffffffffffffffffffffffff021916908373ffffffffffffffffffffffffffffffffffffffff1602179055508173ffffffffffffffffffffffffffffffffffffffff168173ffffffffffffffffffffffffffffffffffffffff167f8be0079c531659141344cd1fd0a4f28419497f9722a3daafe3b4186f6b6457e060405160405180910390a35050565b600660009054906101000a900460ff161562000238576040517f08c379a00000000000000000000000000000000000000000000000000000000081526004016200022f9062000783565b60405180910390fd5b62000249816200031a60201b60201c565b6001600660006101000a81548160ff02191690831515021790555050565b60003073ffffffffffffffffffffffffffffffffffffffff163373ffffffffffffffffffffffffffffffffffffffff1614156200031357600080368080601f016020809104026020016040519081016040528093929190818152602001838380828437600081840152601f19601f820116905080830192505050505050509050600080369050905073ffffffffffffffffffffffffffffffffffffffff81830151169250505062000317565b3390505b90565b6040518060800160405280604f815260200162004243604f91398051906020012081805190602001206040518060400160405280600181526020017f3100000000000000000000000000000000000000000000000000000000000000815250805190602001203062000391620003c960201b60201c565b60001b604051602001620003aa959493929190620007d1565b6040516020818303038152906040528051906020012060078190555050565b6000804690508091505090565b828054620003e4906200085d565b90600052602060002090601f01602090048101928262000408576000855562000454565b82601f106200042357805160ff191683800117855562000454565b8280016001018555821562000454579182015b828111156200045357825182559160200191906001019062000436565b5b50905062000463919062000467565b5090565b5b808211156200048257600081600090555060010162000468565b5090565b6000604051905090565b600080fd5b600080fd5b600080fd5b600080fd5b6000601f19601f8301169050919050565b7f4e487b7100000000000000000000000000000000000000000000000000000000600052604160045260246000fd5b620004ef82620004a4565b810181811067ffffffffffffffff82111715620005115762000510620004b5565b5b80604052505050565b60006200052662000486565b9050620005348282620004e4565b919050565b600067ffffffffffffffff821115620005575762000556620004b5565b5b6200056282620004a4565b9050602081019050919050565b60005b838110156200058f57808201518184015260208101905062000572565b838111156200059f576000848401525b50505050565b6000620005bc620005b68462000539565b6200051a565b905082815260208101848484011115620005db57620005da6200049f565b5b620005e88482856200056f565b509392505050565b600082601f8301126200060857620006076200049a565b5b81516200061a848260208601620005a5565b91505092915050565b600073ffffffffffffffffffffffffffffffffffffffff82169050919050565b6000620006508262000623565b9050919050565b620006628162000643565b81146200066e57600080fd5b50565b600081519050620006828162000657565b92915050565b600080600060608486031215620006a457620006a362000490565b5b600084015167ffffffffffffffff811115620006c557620006c462000495565b5b620006d386828701620005f0565b935050602084015167ffffffffffffffff811115620006f757620006f662000495565b5b6200070586828701620005f0565b9250506040620007188682870162000671565b9150509250925092565b600082825260208201905092915050565b7f616c726561647920696e69746564000000000000000000000000000000000000600082015250565b60006200076b600e8362000722565b9150620007788262000733565b602082019050919050565b600060208201905081810360008301526200079e816200075c565b9050919050565b6000819050919050565b620007ba81620007a5565b82525050565b620007cb8162000643565b82525050565b600060a082019050620007e86000830188620007af565b620007f76020830187620007af565b620008066040830186620007af565b620008156060830185620007c0565b620008246080830184620007af565b9695505050505050565b7f4e487b7100000000000000000000000000000000000000000000000000000000600052602260045260246000fd5b600060028204905060018216806200087657607f821691505b602082108114156200088d576200088c6200082e565b5b50919050565b6139a080620008a36000396000f3fe6080604052600436106101b75760003560e01c80636352211e116100ec578063a22cb4651161008a578063d547cfb711610064578063d547cfb714610615578063e985e9c514610640578063ef9486df1461067d578063f2fde38b146106a8576101b7565b8063a22cb46514610586578063b88d4fde146105af578063c87b56dd146105d8576101b7565b8063715018a6116100c6578063715018a6146104ee5780638da5cb5b14610505578063902d55a51461053057806395d89b411461055b576101b7565b80636352211e1461044b578063669a1f691461048857806370a08231146104b1576101b7565b806320379ee5116101595780632d0335ab116101335780632d0335ab1461038f5780633408e470146103cc57806341e0c7d4146103f757806342842e0e14610422576101b7565b806320379ee514610310578063229bbb4a1461033b57806323b872dd14610366576101b7565b8063095ea7b311610195578063095ea7b3146102615780630c53c51c1461028a5780630f7e5970146102ba57806318160ddd146102e5576101b7565b806301ffc9a7146101bc57806306fdde03146101f9578063081812fc14610224575b600080fd5b3480156101c857600080fd5b506101e360048036038101906101de91906123ac565b6106d1565b6040516101f091906123f4565b60405180910390f35b34801561020557600080fd5b5061020e6107b3565b60405161021b91906124a8565b60405180910390f35b34801561023057600080fd5b5061024b60048036038101906102469190612500565b610845565b604051610258919061256e565b60405180910390f35b34801561026d57600080fd5b50610288600480360381019061028391906125b5565b61088b565b005b6102a4600480360381019061029f9190612799565b6109a3565b6040516102b19190612885565b60405180910390f35b3480156102c657600080fd5b506102cf610c15565b6040516102dc91906124a8565b60405180910390f35b3480156102f157600080fd5b506102fa610c4e565b60405161030791906128b6565b60405180910390f35b34801561031c57600080fd5b50610325610c58565b60405161033291906128e0565b60405180910390f35b34801561034757600080fd5b50610350610c62565b60405161035d91906124a8565b60405180910390f35b34801561037257600080fd5b5061038d600480360381019061038891906128fb565b610c9b565b005b34801561039b57600080fd5b506103b660048036038101906103b1919061294e565b610cfb565b6040516103c391906128b6565b60405180910390f35b3480156103d857600080fd5b506103e1610d44565b6040516103ee91906128b6565b60405180910390f35b34801561040357600080fd5b5061040c610d51565b60405161041991906124a8565b60405180910390f35b34801561042e57600080fd5b50610449600480360381019061044491906128fb565b610d8a565b005b34801561045757600080fd5b50610472600480360381019061046d9190612500565b610daa565b60405161047f919061256e565b60405180910390f35b34801561049457600080fd5b506104af60048036038101906104aa91906125b5565b610e5c565b005b3480156104bd57600080fd5b506104d860048036038101906104d3919061294e565b610e8e565b6040516104e591906128b6565b60405180910390f35b3480156104fa57600080fd5b50610503610f46565b005b34801561051157600080fd5b5061051a610f5a565b604051610527919061256e565b60405180910390f35b34801561053c57600080fd5b50610545610f84565b60405161055291906128b6565b60405180910390f35b34801561056757600080fd5b50610570610f8a565b60405161057d91906124a8565b60405180910390f35b34801561059257600080fd5b506105ad60048036038101906105a891906129a7565b61101c565b005b3480156105bb57600080fd5b506105d660048036038101906105d191906129e7565b611032565b005b3480156105e457600080fd5b506105ff60048036038101906105fa9190612500565b611094565b60405161060c91906124a8565b60405180910390f35b34801561062157600080fd5b5061062a611105565b60405161063791906124a8565b60405180910390f35b34801561064c57600080fd5b5061066760048036038101906106629190612a6a565b611125565b60405161067491906123f4565b60405180910390f35b34801561068957600080fd5b50610692611227565b60405161069f919061256e565b60405180910390f35b3480156106b457600080fd5b506106cf60048036038101906106ca919061294e565b61124d565b005b60007f80ac58cd000000000000000000000000000000000000000000000000000000007bffffffffffffffffffffffffffffffffffffffffffffffffffffffff1916827bffffffffffffffffffffffffffffffffffffffffffffffffffffffff1916148061079c57507f5b5e139f000000000000000000000000000000000000000000000000000000007bffffffffffffffffffffffffffffffffffffffffffffffffffffffff1916827bffffffffffffffffffffffffffffffffffffffffffffffffffffffff1916145b806107ac57506107ab82611382565b5b9050919050565b6060600080546107c290612ad9565b80601f01602080910402602001604051908101604052809291908181526020018280546107ee90612ad9565b801561083b5780601f106108105761010080835404028352916020019161083b565b820191906000526020600020905b81548152906001019060200180831161081e57829003601f168201915b5050505050905090565b6000610850826113ec565b6004600083815260200190815260200160002060009054906101000a900473ffffffffffffffffffffffffffffffffffffffff169050919050565b600061089682610daa565b90508073ffffffffffffffffffffffffffffffffffffffff168373ffffffffffffffffffffffffffffffffffffffff161415610907576040517f08c379a00000000000000000000000000000000000000000000000000000000081526004016108fe90612b7d565b60405180910390fd5b8073ffffffffffffffffffffffffffffffffffffffff16610926611437565b73ffffffffffffffffffffffffffffffffffffffff16148061095557506109548161094f611437565b611125565b5b610994576040517f08c379a000000000000000000000000000000000000000000000000000000000815260040161098b90612c0f565b60405180910390fd5b61099e8383611446565b505050565b606060006040518060600160405280600860008a73ffffffffffffffffffffffffffffffffffffffff1673ffffffffffffffffffffffffffffffffffffffff1681526020019081526020016000205481526020018873ffffffffffffffffffffffffffffffffffffffff168152602001878152509050610a2687828787876114ff565b610a65576040517f08c379a0000000000000000000000000000000000000000000000000000000008152600401610a5c90612ca1565b60405180910390fd5b610ab86001600860008a73ffffffffffffffffffffffffffffffffffffffff1673ffffffffffffffffffffffffffffffffffffffff1681526020019081526020016000205461160890919063ffffffff16565b600860008973ffffffffffffffffffffffffffffffffffffffff1673ffffffffffffffffffffffffffffffffffffffff168152602001908152602001600020819055507f5845892132946850460bff5a0083f71031bc5bf9aadcd40f1de79423eac9b10b873388604051610b2e93929190612ce2565b60405180910390a16000803073ffffffffffffffffffffffffffffffffffffffff16888a604051602001610b63929190612da4565b604051602081830303815290604052604051610b7f9190612dcc565b6000604051808303816000865af19150503d8060008114610bbc576040519150601f19603f3d011682016040523d82523d6000602084013e610bc1565b606091505b509150915081610c06576040517f08c379a0000000000000000000000000000000000000000000000000000000008152600401610bfd90612e2f565b60405180910390fd5b80935050505095945050505050565b6040518060400160405280600181526020017f310000000000000000000000000000000000000000000000000000000000000081525081565b6000600a54905090565b6000600754905090565b6040518060400160405280600581526020017f2e6a736f6e00000000000000000000000000000000000000000000000000000081525081565b610cac610ca6611437565b8261161e565b610ceb576040517f08c379a0000000000000000000000000000000000000000000000000000000008152600401610ce290612ec1565b60405180910390fd5b610cf68383836116b3565b505050565b6000600860008373ffffffffffffffffffffffffffffffffffffffff1673ffffffffffffffffffffffffffffffffffffffff168152602001908152602001600020549050919050565b6000804690508091505090565b6040518060400160405280600681526020017f76312e302e31000000000000000000000000000000000000000000000000000081525081565b610da583838360405180602001604052806000815250611032565b505050565b6000806002600084815260200190815260200160002060009054906101000a900473ffffffffffffffffffffffffffffffffffffffff169050600073ffffffffffffffffffffffffffffffffffffffff168173ffffffffffffffffffffffffffffffffffffffff161415610e53576040517f08c379a0000000000000000000000000000000000000000000000000000000008152600401610e4a90612f2d565b60405180910390fd5b80915050919050565b610e6461191a565b610e6e8282611998565b610e846001600a5461160890919063ffffffff16565b600a819055505050565b60008073ffffffffffffffffffffffffffffffffffffffff168273ffffffffffffffffffffffffffffffffffffffff161415610eff576040517f08c379a0000000000000000000000000000000000000000000000000000000008152600401610ef690612fbf565b60405180910390fd5b600360008373ffffffffffffffffffffffffffffffffffffffff1673ffffffffffffffffffffffffffffffffffffffff168152602001908152602001600020549050919050565b610f4e61191a565b610f5860006119b6565b565b6000600960009054906101000a900473ffffffffffffffffffffffffffffffffffffffff16905090565b600a5481565b606060018054610f9990612ad9565b80601f0160208091040260200160405190810160405280929190818152602001828054610fc590612ad9565b80156110125780601f10610fe757610100808354040283529160200191611012565b820191906000526020600020905b815481529060010190602001808311610ff557829003601f168201915b5050505050905090565b61102e611027611437565b8383611a7c565b5050565b61104361103d611437565b8361161e565b611082576040517f08c379a000000000000000000000000000000000000000000000000000000000815260040161107990612ec1565b60405180910390fd5b61108e84848484611be9565b50505050565b606061109e611105565b6110a783611c45565b6040518060400160405280600581526020017f2e6a736f6e0000000000000000000000000000000000000000000000000000008152506040516020016110ef9392919061301b565b6040516020818303038152906040529050919050565b606060405180608001604052806059815260200161391260599139905090565b600080600b60009054906101000a900473ffffffffffffffffffffffffffffffffffffffff1690508273ffffffffffffffffffffffffffffffffffffffff168173ffffffffffffffffffffffffffffffffffffffff1663c4552791866040518263ffffffff1660e01b815260040161119d919061256e565b60206040518083038186803b1580156111b557600080fd5b505afa1580156111c9573d6000803e3d6000fd5b505050506040513d601f19601f820116820180604052508101906111ed919061308a565b73ffffffffffffffffffffffffffffffffffffffff161415611213576001915050611221565b61121d8484611da6565b9150505b92915050565b600b60009054906101000a900473ffffffffffffffffffffffffffffffffffffffff1681565b61125561191a565b600073ffffffffffffffffffffffffffffffffffffffff168173ffffffffffffffffffffffffffffffffffffffff1614156112c5576040517f08c379a00000000000000000000000000000000000000000000000000000000081526004016112bc90613129565b60405180910390fd5b6112ce816119b6565b50565b60003073ffffffffffffffffffffffffffffffffffffffff163373ffffffffffffffffffffffffffffffffffffffff16141561137b57600080368080601f016020809104026020016040519081016040528093929190818152602001838380828437600081840152601f19601f820116905080830192505050505050509050600080369050905073ffffffffffffffffffffffffffffffffffffffff81830151169250505061137f565b3390505b90565b60007f01ffc9a7000000000000000000000000000000000000000000000000000000007bffffffffffffffffffffffffffffffffffffffffffffffffffffffff1916827bffffffffffffffffffffffffffffffffffffffffffffffffffffffff1916149050919050565b6113f581611e3a565b611434576040517f08c379a000000000000000000000000000000000000000000000000000000000815260040161142b90612f2d565b60405180910390fd5b50565b60006114416112d1565b905090565b816004600083815260200190815260200160002060006101000a81548173ffffffffffffffffffffffffffffffffffffffff021916908373ffffffffffffffffffffffffffffffffffffffff160217905550808273ffffffffffffffffffffffffffffffffffffffff166114b983610daa565b73ffffffffffffffffffffffffffffffffffffffff167f8c5be1e5ebec7d5bd14f71427d1e84f3dd0314c0f7b2291e5b200ac8c7c3b92560405160405180910390a45050565b60008073ffffffffffffffffffffffffffffffffffffffff168673ffffffffffffffffffffffffffffffffffffffff161415611570576040517f08c379a0000000000000000000000000000000000000000000000000000000008152600401611567906131bb565b60405180910390fd5b600161158361157e87611ea6565b611f0e565b838686604051600081526020016040526040516115a394939291906131ea565b6020604051602081039080840390855afa1580156115c5573d6000803e3d6000fd5b5050506020604051035173ffffffffffffffffffffffffffffffffffffffff168673ffffffffffffffffffffffffffffffffffffffff1614905095945050505050565b60008183611616919061325e565b905092915050565b60008061162a83610daa565b90508073ffffffffffffffffffffffffffffffffffffffff168473ffffffffffffffffffffffffffffffffffffffff16148061166c575061166b8185611125565b5b806116aa57508373ffffffffffffffffffffffffffffffffffffffff1661169284610845565b73ffffffffffffffffffffffffffffffffffffffff16145b91505092915050565b8273ffffffffffffffffffffffffffffffffffffffff166116d382610daa565b73ffffffffffffffffffffffffffffffffffffffff1614611729576040517f08c379a000000000000000000000000000000000000000000000000000000000815260040161172090613326565b60405180910390fd5b600073ffffffffffffffffffffffffffffffffffffffff168273ffffffffffffffffffffffffffffffffffffffff161415611799576040517f08c379a0000000000000000000000000000000000000000000000000000000008152600401611790906133b8565b60405180910390fd5b6117a4838383611f47565b6117af600082611446565b6001600360008573ffffffffffffffffffffffffffffffffffffffff1673ffffffffffffffffffffffffffffffffffffffff16815260200190815260200160002060008282546117ff91906133d8565b925050819055506001600360008473ffffffffffffffffffffffffffffffffffffffff1673ffffffffffffffffffffffffffffffffffffffff1681526020019081526020016000206000828254611856919061325e565b92505081905550816002600083815260200190815260200160002060006101000a81548173ffffffffffffffffffffffffffffffffffffffff021916908373ffffffffffffffffffffffffffffffffffffffff160217905550808273ffffffffffffffffffffffffffffffffffffffff168473ffffffffffffffffffffffffffffffffffffffff167fddf252ad1be2c89b69c2b068fc378daa952ba7f163c4a11628f55a4df523b3ef60405160405180910390a4611915838383611f4c565b505050565b611922611437565b73ffffffffffffffffffffffffffffffffffffffff16611940610f5a565b73ffffffffffffffffffffffffffffffffffffffff1614611996576040517f08c379a000000000000000000000000000000000000000000000000000000000815260040161198d90613458565b60405180910390fd5b565b6119b2828260405180602001604052806000815250611f51565b5050565b6000600960009054906101000a900473ffffffffffffffffffffffffffffffffffffffff16905081600960006101000a81548173ffffffffffffffffffffffffffffffffffffffff021916908373ffffffffffffffffffffffffffffffffffffffff1602179055508173ffffffffffffffffffffffffffffffffffffffff168173ffffffffffffffffffffffffffffffffffffffff167f8be0079c531659141344cd1fd0a4f28419497f9722a3daafe3b4186f6b6457e060405160405180910390a35050565b8173ffffffffffffffffffffffffffffffffffffffff168373ffffffffffffffffffffffffffffffffffffffff161415611aeb576040517f08c379a0000000000000000000000000000000000000000000000000000000008152600401611ae2906134c4565b60405180910390fd5b80600560008573ffffffffffffffffffffffffffffffffffffffff1673ffffffffffffffffffffffffffffffffffffffff16815260200190815260200160002060008473ffffffffffffffffffffffffffffffffffffffff1673ffffffffffffffffffffffffffffffffffffffff16815260200190815260200160002060006101000a81548160ff0219169083151502179055508173ffffffffffffffffffffffffffffffffffffffff168373ffffffffffffffffffffffffffffffffffffffff167f17307eab39ab6107e8899845ad3d59bd9653f200f220920489ca2b5937696c3183604051611bdc91906123f4565b60405180910390a3505050565b611bf48484846116b3565b611c0084848484611fac565b611c3f576040517f08c379a0000000000000000000000000000000000000000000000000000000008152600401611c3690613556565b60405180910390fd5b50505050565b60606000821415611c8d576040518060400160405280600181526020017f30000000000000000000000000000000000000000000000000000000000000008152509050611da1565b600082905060005b60008214611cbf578080611ca890613576565b915050600a82611cb891906135ee565b9150611c95565b60008167ffffffffffffffff811115611cdb57611cda6125ff565b5b6040519080825280601f01601f191660200182016040528015611d0d5781602001600182028036833780820191505090505b5090505b60008514611d9a57600182611d2691906133d8565b9150600a85611d35919061361f565b6030611d41919061325e565b60f81b818381518110611d5757611d56613650565b5b60200101907effffffffffffffffffffffffffffffffffffffffffffffffffffffffffffff1916908160001a905350600a85611d9391906135ee565b9450611d11565b8093505050505b919050565b6000600560008473ffffffffffffffffffffffffffffffffffffffff1673ffffffffffffffffffffffffffffffffffffffff16815260200190815260200160002060008373ffffffffffffffffffffffffffffffffffffffff1673ffffffffffffffffffffffffffffffffffffffff16815260200190815260200160002060009054906101000a900460ff16905092915050565b60008073ffffffffffffffffffffffffffffffffffffffff166002600084815260200190815260200160002060009054906101000a900473ffffffffffffffffffffffffffffffffffffffff1673ffffffffffffffffffffffffffffffffffffffff1614159050919050565b60006040518060800160405280604381526020016138cf604391398051906020012082600001518360200151846040015180519060200120604051602001611ef1949392919061367f565b604051602081830303815290604052805190602001209050919050565b6000611f18610c58565b82604051602001611f2a929190613731565b604051602081830303815290604052805190602001209050919050565b505050565b505050565b611f5b8383612143565b611f686000848484611fac565b611fa7576040517f08c379a0000000000000000000000000000000000000000000000000000000008152600401611f9e90613556565b60405180910390fd5b505050565b6000611fcd8473ffffffffffffffffffffffffffffffffffffffff1661231d565b15612136578373ffffffffffffffffffffffffffffffffffffffff1663150b7a02611ff6611437565b8786866040518563ffffffff1660e01b81526004016120189493929190613768565b602060405180830381600087803b15801561203257600080fd5b505af192505050801561206357506040513d601f19601f8201168201806040525081019061206091906137c9565b60015b6120e6573d8060008114612093576040519150601f19603f3d011682016040523d82523d6000602084013e612098565b606091505b506000815114156120de576040517f08c379a00000000000000000000000000000000000000000000000000000000081526004016120d590613556565b60405180910390fd5b805181602001fd5b63150b7a0260e01b7bffffffffffffffffffffffffffffffffffffffffffffffffffffffff1916817bffffffffffffffffffffffffffffffffffffffffffffffffffffffff19161491505061213b565b600190505b949350505050565b600073ffffffffffffffffffffffffffffffffffffffff168273ffffffffffffffffffffffffffffffffffffffff1614156121b3576040517f08c379a00000000000000000000000000000000000000000000000000000000081526004016121aa90613842565b60405180910390fd5b6121bc81611e3a565b156121fc576040517f08c379a00000000000000000000000000000000000000000000000000000000081526004016121f3906138ae565b60405180910390fd5b61220860008383611f47565b6001600360008473ffffffffffffffffffffffffffffffffffffffff1673ffffffffffffffffffffffffffffffffffffffff1681526020019081526020016000206000828254612258919061325e565b92505081905550816002600083815260200190815260200160002060006101000a81548173ffffffffffffffffffffffffffffffffffffffff021916908373ffffffffffffffffffffffffffffffffffffffff160217905550808273ffffffffffffffffffffffffffffffffffffffff16600073ffffffffffffffffffffffffffffffffffffffff167fddf252ad1be2c89b69c2b068fc378daa952ba7f163c4a11628f55a4df523b3ef60405160405180910390a461231960008383611f4c565b5050565b6000808273ffffffffffffffffffffffffffffffffffffffff163b119050919050565b6000604051905090565b600080fd5b600080fd5b60007fffffffff0000000000000000000000000000000000000000000000000000000082169050919050565b61238981612354565b811461239457600080fd5b50565b6000813590506123a681612380565b92915050565b6000602082840312156123c2576123c161234a565b5b60006123d084828501612397565b91505092915050565b60008115159050919050565b6123ee816123d9565b82525050565b600060208201905061240960008301846123e5565b92915050565b600081519050919050565b600082825260208201905092915050565b60005b8381101561244957808201518184015260208101905061242e565b83811115612458576000848401525b50505050565b6000601f19601f8301169050919050565b600061247a8261240f565b612484818561241a565b935061249481856020860161242b565b61249d8161245e565b840191505092915050565b600060208201905081810360008301526124c2818461246f565b905092915050565b6000819050919050565b6124dd816124ca565b81146124e857600080fd5b50565b6000813590506124fa816124d4565b92915050565b6000602082840312156125165761251561234a565b5b6000612524848285016124eb565b91505092915050565b600073ffffffffffffffffffffffffffffffffffffffff82169050919050565b60006125588261252d565b9050919050565b6125688161254d565b82525050565b6000602082019050612583600083018461255f565b92915050565b6125928161254d565b811461259d57600080fd5b50565b6000813590506125af81612589565b92915050565b600080604083850312156125cc576125cb61234a565b5b60006125da858286016125a0565b92505060206125eb858286016124eb565b9150509250929050565b600080fd5b600080fd5b7f4e487b7100000000000000000000000000000000000000000000000000000000600052604160045260246000fd5b6126378261245e565b810181811067ffffffffffffffff82111715612656576126556125ff565b5b80604052505050565b6000612669612340565b9050612675828261262e565b919050565b600067ffffffffffffffff821115612695576126946125ff565b5b61269e8261245e565b9050602081019050919050565b82818337600083830152505050565b60006126cd6126c88461267a565b61265f565b9050828152602081018484840111156126e9576126e86125fa565b5b6126f48482856126ab565b509392505050565b600082601f830112612711576127106125f5565b5b81356127218482602086016126ba565b91505092915050565b6000819050919050565b61273d8161272a565b811461274857600080fd5b50565b60008135905061275a81612734565b92915050565b600060ff82169050919050565b61277681612760565b811461278157600080fd5b50565b6000813590506127938161276d565b92915050565b600080600080600060a086880312156127b5576127b461234a565b5b60006127c3888289016125a0565b955050602086013567ffffffffffffffff8111156127e4576127e361234f565b5b6127f0888289016126fc565b94505060406128018882890161274b565b93505060606128128882890161274b565b925050608061282388828901612784565b9150509295509295909350565b600081519050919050565b600082825260208201905092915050565b600061285782612830565b612861818561283b565b935061287181856020860161242b565b61287a8161245e565b840191505092915050565b6000602082019050818103600083015261289f818461284c565b905092915050565b6128b0816124ca565b82525050565b60006020820190506128cb60008301846128a7565b92915050565b6128da8161272a565b82525050565b60006020820190506128f560008301846128d1565b92915050565b6000806000606084860312156129145761291361234a565b5b6000612922868287016125a0565b9350506020612933868287016125a0565b9250506040612944868287016124eb565b9150509250925092565b6000602082840312156129645761296361234a565b5b6000612972848285016125a0565b91505092915050565b612984816123d9565b811461298f57600080fd5b50565b6000813590506129a18161297b565b92915050565b600080604083850312156129be576129bd61234a565b5b60006129cc858286016125a0565b92505060206129dd85828601612992565b9150509250929050565b60008060008060808587031215612a0157612a0061234a565b5b6000612a0f878288016125a0565b9450506020612a20878288016125a0565b9350506040612a31878288016124eb565b925050606085013567ffffffffffffffff811115612a5257612a5161234f565b5b612a5e878288016126fc565b91505092959194509250565b60008060408385031215612a8157612a8061234a565b5b6000612a8f858286016125a0565b9250506020612aa0858286016125a0565b9150509250929050565b7f4e487b7100000000000000000000000000000000000000000000000000000000600052602260045260246000fd5b60006002820490506001821680612af157607f821691505b60208210811415612b0557612b04612aaa565b5b50919050565b7f4552433732313a20617070726f76616c20746f2063757272656e74206f776e6560008201527f7200000000000000000000000000000000000000000000000000000000000000602082015250565b6000612b6760218361241a565b9150612b7282612b0b565b604082019050919050565b60006020820190508181036000830152612b9681612b5a565b9050919050565b7f4552433732313a20617070726f76652063616c6c6572206973206e6f7420746f60008201527f6b656e206f776e6572206e6f7220617070726f76656420666f7220616c6c0000602082015250565b6000612bf9603e8361241a565b9150612c0482612b9d565b604082019050919050565b60006020820190508181036000830152612c2881612bec565b9050919050565b7f5369676e657220616e64207369676e617475726520646f206e6f74206d61746360008201527f6800000000000000000000000000000000000000000000000000000000000000602082015250565b6000612c8b60218361241a565b9150612c9682612c2f565b604082019050919050565b60006020820190508181036000830152612cba81612c7e565b9050919050565b6000612ccc8261252d565b9050919050565b612cdc81612cc1565b82525050565b6000606082019050612cf7600083018661255f565b612d046020830185612cd3565b8181036040830152612d16818461284c565b9050949350505050565b600081905092915050565b6000612d3682612830565b612d408185612d20565b9350612d5081856020860161242b565b80840191505092915050565b60008160601b9050919050565b6000612d7482612d5c565b9050919050565b6000612d8682612d69565b9050919050565b612d9e612d998261254d565b612d7b565b82525050565b6000612db08285612d2b565b9150612dbc8284612d8d565b6014820191508190509392505050565b6000612dd88284612d2b565b915081905092915050565b7f46756e6374696f6e2063616c6c206e6f74207375636365737366756c00000000600082015250565b6000612e19601c8361241a565b9150612e2482612de3565b602082019050919050565b60006020820190508181036000830152612e4881612e0c565b9050919050565b7f4552433732313a2063616c6c6572206973206e6f7420746f6b656e206f776e6560008201527f72206e6f7220617070726f766564000000000000000000000000000000000000602082015250565b6000612eab602e8361241a565b9150612eb682612e4f565b604082019050919050565b60006020820190508181036000830152612eda81612e9e565b9050919050565b7f4552433732313a20696e76616c696420746f6b656e2049440000000000000000600082015250565b6000612f1760188361241a565b9150612f2282612ee1565b602082019050919050565b60006020820190508181036000830152612f4681612f0a565b9050919050565b7f4552433732313a2061646472657373207a65726f206973206e6f74206120766160008201527f6c6964206f776e65720000000000000000000000000000000000000000000000602082015250565b6000612fa960298361241a565b9150612fb482612f4d565b604082019050919050565b60006020820190508181036000830152612fd881612f9c565b9050919050565b600081905092915050565b6000612ff58261240f565b612fff8185612fdf565b935061300f81856020860161242b565b80840191505092915050565b60006130278286612fea565b91506130338285612fea565b915061303f8284612fea565b9150819050949350505050565b60006130578261254d565b9050919050565b6130678161304c565b811461307257600080fd5b50565b6000815190506130848161305e565b92915050565b6000602082840312156130a05761309f61234a565b5b60006130ae84828501613075565b91505092915050565b7f4f776e61626c653a206e6577206f776e657220697320746865207a65726f206160008201527f6464726573730000000000000000000000000000000000000000000000000000602082015250565b600061311360268361241a565b915061311e826130b7565b604082019050919050565b6000602082019050818103600083015261314281613106565b9050919050565b7f4e61746976654d6574615472616e73616374696f6e3a20494e56414c49445f5360008201527f49474e4552000000000000000000000000000000000000000000000000000000602082015250565b60006131a560258361241a565b91506131b082613149565b604082019050919050565b600060208201905081810360008301526131d481613198565b9050919050565b6131e481612760565b82525050565b60006080820190506131ff60008301876128d1565b61320c60208301866131db565b61321960408301856128d1565b61322660608301846128d1565b95945050505050565b7f4e487b7100000000000000000000000000000000000000000000000000000000600052601160045260246000fd5b6000613269826124ca565b9150613274836124ca565b9250827fffffffffffffffffffffffffffffffffffffffffffffffffffffffffffffffff038211156132a9576132a861322f565b5b828201905092915050565b7f4552433732313a207472616e736665722066726f6d20696e636f72726563742060008201527f6f776e6572000000000000000000000000000000000000000000000000000000602082015250565b600061331060258361241a565b915061331b826132b4565b604082019050919050565b6000602082019050818103600083015261333f81613303565b9050919050565b7f4552433732313a207472616e7366657220746f20746865207a65726f2061646460008201527f7265737300000000000000000000000000000000000000000000000000000000602082015250565b60006133a260248361241a565b91506133ad82613346565b604082019050919050565b600060208201905081810360008301526133d181613395565b9050919050565b60006133e3826124ca565b91506133ee836124ca565b9250828210156134015761340061322f565b5b828203905092915050565b7f4f776e61626c653a2063616c6c6572206973206e6f7420746865206f776e6572600082015250565b600061344260208361241a565b915061344d8261340c565b602082019050919050565b6000602082019050818103600083015261347181613435565b9050919050565b7f4552433732313a20617070726f766520746f2063616c6c657200000000000000600082015250565b60006134ae60198361241a565b91506134b982613478565b602082019050919050565b600060208201905081810360008301526134dd816134a1565b9050919050565b7f4552433732313a207472616e7366657220746f206e6f6e20455243373231526560008201527f63656976657220696d706c656d656e7465720000000000000000000000000000602082015250565b600061354060328361241a565b915061354b826134e4565b604082019050919050565b6000602082019050818103600083015261356f81613533565b9050919050565b6000613581826124ca565b91507fffffffffffffffffffffffffffffffffffffffffffffffffffffffffffffffff8214156135b4576135b361322f565b5b600182019050919050565b7f4e487b7100000000000000000000000000000000000000000000000000000000600052601260045260246000fd5b60006135f9826124ca565b9150613604836124ca565b925082613614576136136135bf565b5b828204905092915050565b600061362a826124ca565b9150613635836124ca565b925082613645576136446135bf565b5b828206905092915050565b7f4e487b7100000000000000000000000000000000000000000000000000000000600052603260045260246000fd5b600060808201905061369460008301876128d1565b6136a160208301866128a7565b6136ae604083018561255f565b6136bb60608301846128d1565b95945050505050565b7f1901000000000000000000000000000000000000000000000000000000000000600082015250565b60006136fa600283612fdf565b9150613705826136c4565b600282019050919050565b6000819050919050565b61372b6137268261272a565b613710565b82525050565b600061373c826136ed565b9150613748828561371a565b602082019150613758828461371a565b6020820191508190509392505050565b600060808201905061377d600083018761255f565b61378a602083018661255f565b61379760408301856128a7565b81810360608301526137a9818461284c565b905095945050505050565b6000815190506137c381612380565b92915050565b6000602082840312156137df576137de61234a565b5b60006137ed848285016137b4565b91505092915050565b7f4552433732313a206d696e7420746f20746865207a65726f2061646472657373600082015250565b600061382c60208361241a565b9150613837826137f6565b602082019050919050565b6000602082019050818103600083015261385b8161381f565b9050919050565b7f4552433732313a20746f6b656e20616c7265616479206d696e74656400000000600082015250565b6000613898601c8361241a565b91506138a382613862565b602082019050919050565b600060208201905081810360008301526138c78161388b565b905091905056fe4d6574615472616e73616374696f6e2875696e74323536206e6f6e63652c616464726573732066726f6d2c62797465732066756e6374696f6e5369676e61747572652968747470733a2f2f6261667962656962636d6c32697774706e6a76323532647434776267347170637064686a36696c706675337361323379796b6c64706975726870612e697066732e6e667473746f726167652e6c696e6b2fa2646970667358221220e87498526f8221c1cfeef37a25121d26d5d341d3d88be257d1db5c6819bb24d464736f6c63430008090033454950373132446f6d61696e28737472696e67206e616d652c737472696e672076657273696f6e2c6164647265737320766572696679696e67436f6e74726163742c627974657333322073616c7429",
  "immutableReferences": {},
  "source": "// SPDX-License-Identifier: MIT\n\npragma solidity ^0.8.0;\n\nimport \"@openzeppelin/contracts/token/ERC721/ERC721.sol\";\nimport \"@openzeppelin/contracts/access/Ownable.sol\";\nimport \"@openzeppelin/contracts/utils/Strings.sol\";\nimport \"@openzeppelin/contracts/utils/math/SafeMath.sol\";\n\nimport \"../meta-transactions/ContentMixin.sol\";\nimport \"../meta-transactions/NativeMetaTransaction.sol\";\n\ncontract OwnableDelegateProxy {}\n\ncontract ProxyRegistry {\n    mapping(address => OwnableDelegateProxy) public proxies;\n}\n\n\ncontract Dinosaur is ERC721, ContextMixin, NativeMetaTransaction, Ownable {\n    using SafeMath for uint256;\n\n    string constant public LASTEST_VERSION = \"v1.0.1\";\n    string constant public META_DATA_EXTENSION = \".json\";\n\n    uint256 public TOTAL_SUPPLY;\n    address public PROXY_REGISTRY_ADDRESS;\n\n    constructor(\n        string memory _name, string memory _symbol, address _proxyRegistry\n    ) ERC721(_name, _symbol) {\n        _initializeEIP712(_name);\n        PROXY_REGISTRY_ADDRESS = _proxyRegistry;\n    }\n\n    function totalSupply() public view returns (uint256) {\n        return TOTAL_SUPPLY;\n    }\n\n    function baseTokenURI() public pure returns (string memory) {\n        return \"https://bafybeibcml2iwtpnjv252dt4wbg4qpcpdhj6ilpfu3sa23yykldpiurhpa.ipfs.nftstorage.link/\";\n    }\n\n    function tokenURI(\n        uint256 _tokenId\n    ) override public pure returns (string memory) {\n        return string(abi.encodePacked(baseTokenURI(), Strings.toString(_tokenId), META_DATA_EXTENSION));\n    }\n    \n    function _msgSender() internal override view returns (address sender) {\n        return ContextMixin.msgSender();\n    }\n\n    function isApprovedForAll(\n        address owner, address operator\n    ) override public view returns (bool) {\n        ProxyRegistry proxyRegistry = ProxyRegistry(PROXY_REGISTRY_ADDRESS);\n        if (address(proxyRegistry.proxies(owner)) == operator) {\n            return true;\n        }\n\n        return super.isApprovedForAll(owner, operator);\n    }\n\n    function mintTokenTo(address _to, uint256 _tokenId) public onlyOwner {\n        _safeMint(_to, _tokenId);\n        TOTAL_SUPPLY = TOTAL_SUPPLY.add(1);\n    }\n}",
  "sourcePath": "/Users/cea/Projects/shandie/dinosaur-dapp/contracts/dinosaur-token/Dinosaur.sol",
  "compiler": {
    "name": "solc",
    "version": "0.8.9+commit.e5eed63a.Emscripten.clang"
  },
  "schemaVersion": "3.4.3",
  "updatedAt": "2022-07-06T01:23:53.792Z",
  "networkType": "ethereum",
  "devdoc": {
    "kind": "dev",
    "methods": {
      "approve(address,uint256)": {
        "details": "See {IERC721-approve}."
      },
      "balanceOf(address)": {
        "details": "See {IERC721-balanceOf}."
      },
      "getApproved(uint256)": {
        "details": "See {IERC721-getApproved}."
      },
      "isApprovedForAll(address,address)": {
        "details": "See {IERC721-isApprovedForAll}."
      },
      "name()": {
        "details": "See {IERC721Metadata-name}."
      },
      "owner()": {
        "details": "Returns the address of the current owner."
      },
      "ownerOf(uint256)": {
        "details": "See {IERC721-ownerOf}."
      },
      "renounceOwnership()": {
        "details": "Leaves the contract without owner. It will not be possible to call `onlyOwner` functions anymore. Can only be called by the current owner. NOTE: Renouncing ownership will leave the contract without an owner, thereby removing any functionality that is only available to the owner."
      },
      "safeTransferFrom(address,address,uint256)": {
        "details": "See {IERC721-safeTransferFrom}."
      },
      "safeTransferFrom(address,address,uint256,bytes)": {
        "details": "See {IERC721-safeTransferFrom}."
      },
      "setApprovalForAll(address,bool)": {
        "details": "See {IERC721-setApprovalForAll}."
      },
      "supportsInterface(bytes4)": {
        "details": "See {IERC165-supportsInterface}."
      },
      "symbol()": {
        "details": "See {IERC721Metadata-symbol}."
      },
      "transferFrom(address,address,uint256)": {
        "details": "See {IERC721-transferFrom}."
      },
      "transferOwnership(address)": {
        "details": "Transfers ownership of the contract to a new account (`newOwner`). Can only be called by the current owner."
      }
    },
    "version": 1
  },
  "userdoc": {
    "kind": "user",
    "methods": {},
    "version": 1
  }
}