{
  "contractName": "Salvation",
  "abi": [
    {
      "inputs": [
        {
          "internalType": "address",
          "name": "dinosaurNFT",
          "type": "address"
        },
        {
          "internalType": "address",
          "name": "USDTAddress",
          "type": "address"
        },
        {
          "internalType": "address[]",
          "name": "fundAddress",
          "type": "address[]"
        },
        {
          "internalType": "uint256[]",
          "name": "fundShares",
          "type": "uint256[]"
        },
        {
          "internalType": "uint256[]",
          "name": "totalCards",
          "type": "uint256[]"
        },
        {
          "internalType": "uint256[]",
          "name": "escapeCards",
          "type": "uint256[]"
        },
        {
          "internalType": "uint256[]",
          "name": "memberTotals",
          "type": "uint256[]"
        }
      ],
      "stateMutability": "nonpayable",
      "type": "constructor"
    },
    {
      "anonymous": false,
      "inputs": [
        {
          "indexed": false,
          "internalType": "address",
          "name": "account",
          "type": "address"
        }
      ],
      "name": "Paused",
      "type": "event"
    },
    {
      "anonymous": false,
      "inputs": [
        {
          "indexed": false,
          "internalType": "uint256",
          "name": "tokenId",
          "type": "uint256"
        },
        {
          "indexed": false,
          "internalType": "uint256",
          "name": "stageRound",
          "type": "uint256"
        },
        {
          "indexed": false,
          "internalType": "uint256",
          "name": "fee",
          "type": "uint256"
        }
      ],
      "name": "RescueDinosaur",
      "type": "event"
    },
    {
      "anonymous": false,
      "inputs": [
        {
          "indexed": true,
          "internalType": "bytes32",
          "name": "role",
          "type": "bytes32"
        },
        {
          "indexed": true,
          "internalType": "bytes32",
          "name": "previousAdminRole",
          "type": "bytes32"
        },
        {
          "indexed": true,
          "internalType": "bytes32",
          "name": "newAdminRole",
          "type": "bytes32"
        }
      ],
      "name": "RoleAdminChanged",
      "type": "event"
    },
    {
      "anonymous": false,
      "inputs": [
        {
          "indexed": true,
          "internalType": "bytes32",
          "name": "role",
          "type": "bytes32"
        },
        {
          "indexed": true,
          "internalType": "address",
          "name": "account",
          "type": "address"
        },
        {
          "indexed": true,
          "internalType": "address",
          "name": "sender",
          "type": "address"
        }
      ],
      "name": "RoleGranted",
      "type": "event"
    },
    {
      "anonymous": false,
      "inputs": [
        {
          "indexed": true,
          "internalType": "bytes32",
          "name": "role",
          "type": "bytes32"
        },
        {
          "indexed": true,
          "internalType": "address",
          "name": "account",
          "type": "address"
        },
        {
          "indexed": true,
          "internalType": "address",
          "name": "sender",
          "type": "address"
        }
      ],
      "name": "RoleRevoked",
      "type": "event"
    },
    {
      "anonymous": false,
      "inputs": [
        {
          "indexed": false,
          "internalType": "address",
          "name": "account",
          "type": "address"
        }
      ],
      "name": "Unpaused",
      "type": "event"
    },
    {
      "inputs": [],
      "name": "ADMIN_ROLE",
      "outputs": [
        {
          "internalType": "bytes32",
          "name": "",
          "type": "bytes32"
        }
      ],
      "stateMutability": "view",
      "type": "function",
      "constant": true
    },
    {
      "inputs": [],
      "name": "BLACK_HOLE_ADDRESS",
      "outputs": [
        {
          "internalType": "address",
          "name": "",
          "type": "address"
        }
      ],
      "stateMutability": "view",
      "type": "function",
      "constant": true
    },
    {
      "inputs": [],
      "name": "CURRENT_STAGE",
      "outputs": [
        {
          "internalType": "uint256",
          "name": "",
          "type": "uint256"
        }
      ],
      "stateMutability": "view",
      "type": "function",
      "constant": true
    },
    {
      "inputs": [],
      "name": "DEFAULT_ADMIN_ROLE",
      "outputs": [
        {
          "internalType": "bytes32",
          "name": "",
          "type": "bytes32"
        }
      ],
      "stateMutability": "view",
      "type": "function",
      "constant": true
    },
    {
      "inputs": [],
      "name": "DINOSAUR_NFT_ADDRESS",
      "outputs": [
        {
          "internalType": "address",
          "name": "",
          "type": "address"
        }
      ],
      "stateMutability": "view",
      "type": "function",
      "constant": true
    },
    {
      "inputs": [],
      "name": "LASTEST_VERSION",
      "outputs": [
        {
          "internalType": "string",
          "name": "",
          "type": "string"
        }
      ],
      "stateMutability": "view",
      "type": "function",
      "constant": true
    },
    {
      "inputs": [],
      "name": "RESCUE_TOKEN_ADDRESS",
      "outputs": [
        {
          "internalType": "address",
          "name": "",
          "type": "address"
        }
      ],
      "stateMutability": "view",
      "type": "function",
      "constant": true
    },
    {
      "inputs": [
        {
          "internalType": "bytes32",
          "name": "role",
          "type": "bytes32"
        }
      ],
      "name": "getRoleAdmin",
      "outputs": [
        {
          "internalType": "bytes32",
          "name": "",
          "type": "bytes32"
        }
      ],
      "stateMutability": "view",
      "type": "function",
      "constant": true
    },
    {
      "inputs": [
        {
          "internalType": "bytes32",
          "name": "role",
          "type": "bytes32"
        },
        {
          "internalType": "address",
          "name": "account",
          "type": "address"
        }
      ],
      "name": "grantRole",
      "outputs": [],
      "stateMutability": "nonpayable",
      "type": "function"
    },
    {
      "inputs": [
        {
          "internalType": "bytes32",
          "name": "role",
          "type": "bytes32"
        },
        {
          "internalType": "address",
          "name": "account",
          "type": "address"
        }
      ],
      "name": "hasRole",
      "outputs": [
        {
          "internalType": "bool",
          "name": "",
          "type": "bool"
        }
      ],
      "stateMutability": "view",
      "type": "function",
      "constant": true
    },
    {
      "inputs": [],
      "name": "paused",
      "outputs": [
        {
          "internalType": "bool",
          "name": "",
          "type": "bool"
        }
      ],
      "stateMutability": "view",
      "type": "function",
      "constant": true
    },
    {
      "inputs": [
        {
          "internalType": "bytes32",
          "name": "requestId",
          "type": "bytes32"
        },
        {
          "internalType": "uint256",
          "name": "randomness",
          "type": "uint256"
        }
      ],
      "name": "rawFulfillRandomness",
      "outputs": [],
      "stateMutability": "nonpayable",
      "type": "function"
    },
    {
      "inputs": [
        {
          "internalType": "bytes32",
          "name": "role",
          "type": "bytes32"
        },
        {
          "internalType": "address",
          "name": "account",
          "type": "address"
        }
      ],
      "name": "renounceRole",
      "outputs": [],
      "stateMutability": "nonpayable",
      "type": "function"
    },
    {
      "inputs": [
        {
          "internalType": "bytes32",
          "name": "role",
          "type": "bytes32"
        },
        {
          "internalType": "address",
          "name": "account",
          "type": "address"
        }
      ],
      "name": "revokeRole",
      "outputs": [],
      "stateMutability": "nonpayable",
      "type": "function"
    },
    {
      "inputs": [
        {
          "internalType": "bytes4",
          "name": "interfaceId",
          "type": "bytes4"
        }
      ],
      "name": "supportsInterface",
      "outputs": [
        {
          "internalType": "bool",
          "name": "",
          "type": "bool"
        }
      ],
      "stateMutability": "view",
      "type": "function",
      "constant": true
    },
    {
      "inputs": [
        {
          "internalType": "uint256",
          "name": "stage",
          "type": "uint256"
        },
        {
          "internalType": "uint256",
          "name": "tokenId",
          "type": "uint256"
        }
      ],
      "name": "isEscapeCard",
      "outputs": [
        {
          "internalType": "bool",
          "name": "",
          "type": "bool"
        }
      ],
      "stateMutability": "view",
      "type": "function",
      "constant": true
    },
    {
      "inputs": [],
      "name": "getStageDetail",
      "outputs": [
        {
          "internalType": "uint256[]",
          "name": "stage",
          "type": "uint256[]"
        }
      ],
      "stateMutability": "view",
      "type": "function",
      "constant": true
    },
    {
      "inputs": [
        {
          "internalType": "address",
          "name": "account",
          "type": "address"
        }
      ],
      "name": "addWhiteList",
      "outputs": [],
      "stateMutability": "nonpayable",
      "type": "function"
    },
    {
      "inputs": [
        {
          "internalType": "uint256",
          "name": "stage",
          "type": "uint256"
        },
        {
          "internalType": "uint256",
          "name": "delay",
          "type": "uint256"
        }
      ],
      "name": "setStageDelay",
      "outputs": [],
      "stateMutability": "nonpayable",
      "type": "function"
    },
    {
      "inputs": [
        {
          "internalType": "uint256",
          "name": "stage",
          "type": "uint256"
        },
        {
          "internalType": "uint256",
          "name": "fee",
          "type": "uint256"
        }
      ],
      "name": "setStageRescueFee",
      "outputs": [],
      "stateMutability": "nonpayable",
      "type": "function"
    },
    {
      "inputs": [
        {
          "internalType": "uint256",
          "name": "escapeCard",
          "type": "uint256"
        },
        {
          "internalType": "uint256[]",
          "name": "normalCards",
          "type": "uint256[]"
        }
      ],
      "name": "rescueDinosaur",
      "outputs": [],
      "stateMutability": "nonpayable",
      "type": "function"
    }
  ],
  "bytecode": "0x61010060405260006007553480156200001757600080fd5b506040516200372f3803806200372f83398181016040528101906200003d919062000902565b738c7382f9d8f56b33781fe506e897a4f1e2d17255736168499c0cffcacd319c818142124b7a15e857ab8173ffffffffffffffffffffffffffffffffffffffff1660a08173ffffffffffffffffffffffffffffffffffffffff16815250508073ffffffffffffffffffffffffffffffffffffffff1660808173ffffffffffffffffffffffffffffffffffffffff168152505050506000600460006101000a81548160ff0219169083151502179055508673ffffffffffffffffffffffffffffffffffffffff1660c08173ffffffffffffffffffffffffffffffffffffffff16815250508573ffffffffffffffffffffffffffffffffffffffff1660e08173ffffffffffffffffffffffffffffffffffffffff16815250506000805b86518110156200025b576006604051806040016040528089848151811062000185576200018462000a50565b5b602002602001015173ffffffffffffffffffffffffffffffffffffffff168152602001888481518110620001be57620001bd62000a50565b5b6020026020010151815250908060018154018082558091505060019003906000526020600020906002020160009091909190915060008201518160000160006101000a81548173ffffffffffffffffffffffffffffffffffffffff021916908373ffffffffffffffffffffffffffffffffffffffff1602179055506020820151816001015550508080620002529062000aae565b91505062000158565b5060005b84518110156200044e576040518061012001604052806000815260200185838151811062000292576200029162000a50565b5b60200260200101518152602001858381518110620002b557620002b462000a50565b5b6020026020010151878481518110620002d357620002d262000a50565b5b6020026020010151620002e7919062000afc565b815260200184838151811062000302576200030162000a50565b5b6020026020010151815260200160008314620003265766b1a2bc2ec5000062000329565b60005b66ffffffffffffff16815260200160008152602001600081526020016203f48081526020016000815250600a6000838152602001908152602001600020600082015181600001556020820151816001015560408201518160020155606082015181600301556080820151816004015560a0820151816005015560c0820151816006015560e082015181600701556101008201518160080155905050848181518110620003da57620003d962000a50565b5b602002602001015182620003ef919062000b37565b915060008111156200041c5781600a60008381526020019081526020016000206000018190555062000438565b42600a6000838152602001908152602001600020600801819055505b8080620004459062000aae565b9150506200025f565b50620004907fa49807205ce4d355092ef5a8a18f56e8913cf4a201fbe287825b095693c21775620004846200049e60201b60201c565b620004a660201b60201c565b505050505050505062000b94565b600033905090565b620004b882826200059860201b60201c565b620005945760016005600084815260200190815260200160002060000160008373ffffffffffffffffffffffffffffffffffffffff1673ffffffffffffffffffffffffffffffffffffffff16815260200190815260200160002060006101000a81548160ff021916908315150217905550620005396200049e60201b60201c565b73ffffffffffffffffffffffffffffffffffffffff168173ffffffffffffffffffffffffffffffffffffffff16837f2f8788117e7eff1d82e926ec794901d17c78024a50270940304540a733656f0d60405160405180910390a45b5050565b60006005600084815260200190815260200160002060000160008373ffffffffffffffffffffffffffffffffffffffff1673ffffffffffffffffffffffffffffffffffffffff16815260200190815260200160002060009054906101000a900460ff16905092915050565b6000604051905090565b600080fd5b600080fd5b600073ffffffffffffffffffffffffffffffffffffffff82169050919050565b6000620006448262000617565b9050919050565b620006568162000637565b81146200066257600080fd5b50565b60008151905062000676816200064b565b92915050565b600080fd5b6000601f19601f8301169050919050565b7f4e487b7100000000000000000000000000000000000000000000000000000000600052604160045260246000fd5b620006cc8262000681565b810181811067ffffffffffffffff82111715620006ee57620006ed62000692565b5b80604052505050565b60006200070362000603565b9050620007118282620006c1565b919050565b600067ffffffffffffffff82111562000734576200073362000692565b5b602082029050602081019050919050565b600080fd5b6000620007616200075b8462000716565b620006f7565b9050808382526020820190506020840283018581111562000787576200078662000745565b5b835b81811015620007b457806200079f888262000665565b84526020840193505060208101905062000789565b5050509392505050565b600082601f830112620007d657620007d56200067c565b5b8151620007e88482602086016200074a565b91505092915050565b600067ffffffffffffffff8211156200080f576200080e62000692565b5b602082029050602081019050919050565b6000819050919050565b620008358162000820565b81146200084157600080fd5b50565b60008151905062000855816200082a565b92915050565b6000620008726200086c84620007f1565b620006f7565b9050808382526020820190506020840283018581111562000898576200089762000745565b5b835b81811015620008c55780620008b0888262000844565b8452602084019350506020810190506200089a565b5050509392505050565b600082601f830112620008e757620008e66200067c565b5b8151620008f98482602086016200085b565b91505092915050565b600080600080600080600060e0888a0312156200092457620009236200060d565b5b6000620009348a828b0162000665565b9750506020620009478a828b0162000665565b965050604088015167ffffffffffffffff8111156200096b576200096a62000612565b5b620009798a828b01620007be565b955050606088015167ffffffffffffffff8111156200099d576200099c62000612565b5b620009ab8a828b01620008cf565b945050608088015167ffffffffffffffff811115620009cf57620009ce62000612565b5b620009dd8a828b01620008cf565b93505060a088015167ffffffffffffffff81111562000a015762000a0062000612565b5b62000a0f8a828b01620008cf565b92505060c088015167ffffffffffffffff81111562000a335762000a3262000612565b5b62000a418a828b01620008cf565b91505092959891949750929550565b7f4e487b7100000000000000000000000000000000000000000000000000000000600052603260045260246000fd5b7f4e487b7100000000000000000000000000000000000000000000000000000000600052601160045260246000fd5b600062000abb8262000820565b91507fffffffffffffffffffffffffffffffffffffffffffffffffffffffffffffffff82141562000af15762000af062000a7f565b5b600182019050919050565b600062000b098262000820565b915062000b168362000820565b92508282101562000b2c5762000b2b62000a7f565b5b828203905092915050565b600062000b448262000820565b915062000b518362000820565b9250827fffffffffffffffffffffffffffffffffffffffffffffffffffffffffffffffff0382111562000b895762000b8862000a7f565b5b828201905092915050565b60805160a05160c05160e051612b4f62000be06000396000818161086f015261107a015260008181610c3b0152818161120a015261147a015260006109bc015260005050612b4f6000f3fe608060405234801561001057600080fd5b50600436106101365760003560e01c806341e0c7d4116100b857806394985ddd1161007c57806394985ddd1461033d578063a217fddf14610359578063cabe1edf14610377578063d547741f14610393578063e7cd4a04146103af578063f516b12f146103cb57610136565b806341e0c7d4146102975780635c975abb146102b557806375b238fc146102d35780638251df1e146102f157806391d148541461030d57610136565b8063327661e1116100ff578063327661e11461020357806336568abe14610221578063366e30291461023d5780633cdfef011461025b5780633d18b25b1461027957610136565b806253f6321461013b57806301ffc9a7146101575780632416566214610187578063248a9ca3146101b75780632f2ff15d146101e7575b600080fd5b61015560048036038101906101509190611c55565b6103e9565b005b610171600480360381019061016c9190611ced565b610433565b60405161017e9190611d35565b60405180910390f35b6101a1600480360381019061019c9190611c55565b6104ad565b6040516101ae9190611d35565b60405180910390f35b6101d160048036038101906101cc9190611d86565b61054b565b6040516101de9190611dc2565b60405180910390f35b61020160048036038101906101fc9190611e3b565b61056b565b005b61020b61058c565b6040516102189190611e8a565b60405180910390f35b61023b60048036038101906102369190611e3b565b610592565b005b610245610615565b6040516102529190611f63565b60405180910390f35b610263610867565b6040516102709190611f94565b60405180910390f35b61028161086d565b60405161028e9190611f94565b60405180910390f35b61029f610891565b6040516102ac9190612048565b60405180910390f35b6102bd6108ca565b6040516102ca9190611d35565b60405180910390f35b6102db6108e1565b6040516102e89190611dc2565b60405180910390f35b61030b60048036038101906103069190611c55565b610905565b005b61032760048036038101906103229190611e3b565b61094f565b6040516103349190611d35565b60405180910390f35b6103576004803603810190610352919061206a565b6109ba565b005b610361610a56565b60405161036e9190611dc2565b60405180910390f35b610391600480360381019061038c91906121f2565b610a5d565b005b6103ad60048036038101906103a89190611e3b565b610b92565b005b6103c960048036038101906103c4919061224e565b610bb3565b005b6103d3610c39565b6040516103e09190611f94565b60405180910390f35b7fa49807205ce4d355092ef5a8a18f56e8913cf4a201fbe287825b095693c2177561041381610c5d565b81600a600085815260200190815260200160002060040181905550505050565b60007f7965db0b000000000000000000000000000000000000000000000000000000007bffffffffffffffffffffffffffffffffffffffffffffffffffffffff1916827bffffffffffffffffffffffffffffffffffffffffffffffffffffffff191614806104a657506104a582610c71565b5b9050919050565b600080600a60008581526020019081526020016000206040518061012001604052908160008201548152602001600182015481526020016002820154815260200160038201548152602001600482015481526020016005820154815260200160068201548152602001600782015481526020016008820154815250509050806000015183101580156105425750806020015183105b91505092915050565b600060056000838152602001908152602001600020600101549050919050565b6105748261054b565b61057d81610c5d565b6105878383610cdb565b505050565b60075481565b61059a610dbc565b73ffffffffffffffffffffffffffffffffffffffff168173ffffffffffffffffffffffffffffffffffffffff1614610607576040517f08c379a00000000000000000000000000000000000000000000000000000000081526004016105fe906122ed565b60405180910390fd5b6106118282610dc4565b5050565b6060600967ffffffffffffffff811115610632576106316120af565b5b6040519080825280602002602001820160405280156106605781602001602082028036833780820191505090505b509050600a6000600754815260200190815260200160002060000154816000815181106106905761068f61230d565b5b602002602001018181525050600a6000600754815260200190815260200160002060010154816001815181106106c9576106c861230d565b5b602002602001018181525050600a6000600754815260200190815260200160002060020154816002815181106107025761070161230d565b5b602002602001018181525050600a60006007548152602001908152602001600020600301548160038151811061073b5761073a61230d565b5b602002602001018181525050600a6000600754815260200190815260200160002060040154816004815181106107745761077361230d565b5b602002602001018181525050600a6000600754815260200190815260200160002060050154816005815181106107ad576107ac61230d565b5b602002602001018181525050600a6000600754815260200190815260200160002060060154816006815181106107e6576107e561230d565b5b602002602001018181525050600a60006007548152602001908152602001600020600701548160078151811061081f5761081e61230d565b5b602002602001018181525050600a6000600754815260200190815260200160002060080154816008815181106108585761085761230d565b5b60200260200101818152505090565b61dead81565b7f000000000000000000000000000000000000000000000000000000000000000081565b6040518060400160405280600681526020017f76312e302e31000000000000000000000000000000000000000000000000000081525081565b6000600460009054906101000a900460ff16905090565b7fa49807205ce4d355092ef5a8a18f56e8913cf4a201fbe287825b095693c2177581565b7fa49807205ce4d355092ef5a8a18f56e8913cf4a201fbe287825b095693c2177561092f81610c5d565b81600a600085815260200190815260200160002060070181905550505050565b60006005600084815260200190815260200160002060000160008373ffffffffffffffffffffffffffffffffffffffff1673ffffffffffffffffffffffffffffffffffffffff16815260200190815260200160002060009054906101000a900460ff16905092915050565b7f000000000000000000000000000000000000000000000000000000000000000073ffffffffffffffffffffffffffffffffffffffff163373ffffffffffffffffffffffffffffffffffffffff1614610a48576040517f08c379a0000000000000000000000000000000000000000000000000000000008152600401610a3f90612388565b60405180910390fd5b610a528282610ea6565b5050565b6000801b81565b610a65610ed7565b60086000610a71610dbc565b73ffffffffffffffffffffffffffffffffffffffff1673ffffffffffffffffffffffffffffffffffffffff16815260200190815260200160002060009054906101000a900460ff1680610ac75750600060075414155b610b06576040517f08c379a0000000000000000000000000000000000000000000000000000000008152600401610afd906123f4565b60405180910390fd5b60006007541480610b2f57506000600a6000600754815260200190815260200160002060080154145b610b6e576040517f08c379a0000000000000000000000000000000000000000000000000000000008152600401610b6590612460565b60405180910390fd5b60008211610b8357610b7e610f21565b610b8e565b610b8d8282611365565b5b5050565b610b9b8261054b565b610ba481610c5d565b610bae8383610dc4565b505050565b7fa49807205ce4d355092ef5a8a18f56e8913cf4a201fbe287825b095693c21775610bdd81610c5d565b6001600860008473ffffffffffffffffffffffffffffffffffffffff1673ffffffffffffffffffffffffffffffffffffffff16815260200190815260200160002060006101000a81548160ff0219169083151502179055505050565b7f000000000000000000000000000000000000000000000000000000000000000081565b610c6e81610c69610dbc565b611695565b50565b60007f01ffc9a7000000000000000000000000000000000000000000000000000000007bffffffffffffffffffffffffffffffffffffffffffffffffffffffff1916827bffffffffffffffffffffffffffffffffffffffffffffffffffffffff1916149050919050565b610ce5828261094f565b610db85760016005600084815260200190815260200160002060000160008373ffffffffffffffffffffffffffffffffffffffff1673ffffffffffffffffffffffffffffffffffffffff16815260200190815260200160002060006101000a81548160ff021916908315150217905550610d5d610dbc565b73ffffffffffffffffffffffffffffffffffffffff168173ffffffffffffffffffffffffffffffffffffffff16837f2f8788117e7eff1d82e926ec794901d17c78024a50270940304540a733656f0d60405160405180910390a45b5050565b600033905090565b610dce828261094f565b15610ea25760006005600084815260200190815260200160002060000160008373ffffffffffffffffffffffffffffffffffffffff1673ffffffffffffffffffffffffffffffffffffffff16815260200190815260200160002060006101000a81548160ff021916908315150217905550610e47610dbc565b73ffffffffffffffffffffffffffffffffffffffff168173ffffffffffffffffffffffffffffffffffffffff16837ff6391f5c32d9c69d2a47ea670b442974b53935d1edc7fd64eb21e047a839171b60405160405180910390a45b5050565b806003600084815260200190815260200160002081905550610ed281600161173290919063ffffffff16565b505050565b610edf6108ca565b15610f1f576040517f08c379a0000000000000000000000000000000000000000000000000000000008152600401610f16906124cc565b60405180910390fd5b565b6000600a6000600754815260200190815260200160002060405180610120016040529081600082015481526020016001820154815260200160028201548152602001600382015481526020016004820154815260200160058201548152602001600682015481526020016007820154815260200160088201548152505090508060800151341015610fe7576040517f08c379a0000000000000000000000000000000000000000000000000000000008152600401610fde90612538565b60405180910390fd5b60006110058260e0015183610100015161174c90919063ffffffff16565b421015905060006007541415801561101a5750805b8061102a57506000826101000151145b611069576040517f08c379a000000000000000000000000000000000000000000000000000000000815260040161106090612460565b60405180910390fd5b6000826080015111156112065760007f0000000000000000000000000000000000000000000000000000000000000000905060005b6006805490508110156112035760006110fd600683815481106110c4576110c361230d565b5b9060005260206000209060020201600101546110ef612710886080015161176290919063ffffffff16565b61177890919063ffffffff16565b90508273ffffffffffffffffffffffffffffffffffffffff166323b872dd611123610dbc565b600685815481106111375761113661230d565b5b906000526020600020906002020160000160009054906101000a900473ffffffffffffffffffffffffffffffffffffffff1661117e6127108661177890919063ffffffff16565b6040518463ffffffff1660e01b815260040161119c93929190612558565b602060405180830381600087803b1580156111b657600080fd5b505af11580156111ca573d6000803e3d6000fd5b505050506040513d601f19601f820116820180604052508101906111ee91906125bb565b505080806111fb90612617565b91505061109e565b50505b60007f00000000000000000000000000000000000000000000000000000000000000009050600061123d61123861178e565b6117d6565b90508173ffffffffffffffffffffffffffffffffffffffff1663669a1f69611263610dbc565b836040518363ffffffff1660e01b8152600401611281929190612660565b600060405180830381600087803b15801561129b57600080fd5b505af11580156112af573d6000803e3d6000fd5b505050506000600754141561131e576001600960006112cc610dbc565b73ffffffffffffffffffffffffffffffffffffffff1673ffffffffffffffffffffffffffffffffffffffff16815260200190815260200160002060006101000a81548160ff0219169083151502179055505b7f918f5de4aaa8217cf6fe21363f61d0da9d13f58270ca9ceff128a4f2fd484c3381600754866080015160405161135793929190612689565b60405180910390a150505050565b6000600a6000600754815260200190815260200160002060405180610120016040529081600082015481526020016001820154815260200160028201548152602001600382015481526020016004820154815260200160058201548152602001600682015481526020016007820154815260200160088201548152505090506113f0600754846104ad565b61142f576040517f08c379a00000000000000000000000000000000000000000000000000000000081526004016114269061270c565b60405180910390fd5b8060600151825114611476576040517f08c379a000000000000000000000000000000000000000000000000000000000815260040161146d90612778565b60405180910390fd5b60007f000000000000000000000000000000000000000000000000000000000000000090508073ffffffffffffffffffffffffffffffffffffffff166323b872dd6114bf610dbc565b61dead876040518463ffffffff1660e01b81526004016114e193929190612558565b600060405180830381600087803b1580156114fb57600080fd5b505af115801561150f573d6000803e3d6000fd5b5050505060005b83518110156115c4578173ffffffffffffffffffffffffffffffffffffffff166323b872dd611543610dbc565b61dead8785815181106115595761155861230d565b5b60200260200101516040518463ffffffff1660e01b815260040161157f93929190612558565b600060405180830381600087803b15801561159957600080fd5b505af11580156115ad573d6000803e3d6000fd5b5050505080806115bc90612617565b915050611516565b5060006115d76115d261178e565b6117d6565b90508173ffffffffffffffffffffffffffffffffffffffff1663669a1f696115fd610dbc565b836040518363ffffffff1660e01b815260040161161b929190612660565b600060405180830381600087803b15801561163557600080fd5b505af1158015611649573d6000803e3d6000fd5b505050507f918f5de4aaa8217cf6fe21363f61d0da9d13f58270ca9ceff128a4f2fd484c3381600754856080015160405161168693929190612689565b60405180910390a15050505050565b61169f828261094f565b61172e576116c48173ffffffffffffffffffffffffffffffffffffffff1660146118e2565b6116d28360001c60206118e2565b6040516020016116e392919061286c565b6040516020818303038152906040526040517f08c379a00000000000000000000000000000000000000000000000000000000081526004016117259190612048565b60405180910390fd5b5050565b6000611744836000018360001b611b1e565b905092915050565b6000818361175a91906128a6565b905092915050565b6000818361177091906128fc565b905092915050565b600081836117869190612985565b905092915050565b600043426040516020016117a39291906129d7565b6040516020818303038152906040528051906020012060001c90506117d281600161173290919063ffffffff16565b5090565b600080600a600060075481526020019081526020016000209050600061180d82600501548360010154611b8e90919063ffffffff16565b9050600061182c83600601548460020154611b8e90919063ffffffff16565b9050600061184c86611847848661174c90919063ffffffff16565b611ba4565b905082811161189b5761186d6001856005015461174c90919063ffffffff16565b84600501819055506118908460000154856005015461174c90919063ffffffff16565b9450505050506118dd565b6118b36001856006015461174c90919063ffffffff16565b84600601819055506118d68460010154856006015461174c90919063ffffffff16565b9450505050505b919050565b6060600060028360026118f591906128fc565b6118ff91906128a6565b67ffffffffffffffff811115611918576119176120af565b5b6040519080825280601f01601f19166020018201604052801561194a5781602001600182028036833780820191505090505b5090507f3000000000000000000000000000000000000000000000000000000000000000816000815181106119825761198161230d565b5b60200101907effffffffffffffffffffffffffffffffffffffffffffffffffffffffffffff1916908160001a9053507f7800000000000000000000000000000000000000000000000000000000000000816001815181106119e6576119e561230d565b5b60200101907effffffffffffffffffffffffffffffffffffffffffffffffffffffffffffff1916908160001a90535060006001846002611a2691906128fc565b611a3091906128a6565b90505b6001811115611ad0577f3031323334353637383961626364656600000000000000000000000000000000600f861660108110611a7257611a7161230d565b5b1a60f81b828281518110611a8957611a8861230d565b5b60200101907effffffffffffffffffffffffffffffffffffffffffffffffffffffffffffff1916908160001a905350600485901c945080611ac990612a03565b9050611a33565b5060008414611b14576040517f08c379a0000000000000000000000000000000000000000000000000000000008152600401611b0b90612a79565b60405180910390fd5b8091505092915050565b6000611b2a8383611be8565b611b83578260000182908060018154018082558091505060019003906000526020600020016000909190919091505582600001805490508360010160008481526020019081526020016000208190555060019050611b88565b600090505b92915050565b60008183611b9c9190612a99565b905092915050565b60008083604051602001611bb89190612acd565b604051602081830303815290604052905082818051906020012060001c611bdf9190612ae8565b91505092915050565b600080836001016000848152602001908152602001600020541415905092915050565b6000604051905090565b600080fd5b600080fd5b6000819050919050565b611c3281611c1f565b8114611c3d57600080fd5b50565b600081359050611c4f81611c29565b92915050565b60008060408385031215611c6c57611c6b611c15565b5b6000611c7a85828601611c40565b9250506020611c8b85828601611c40565b9150509250929050565b60007fffffffff0000000000000000000000000000000000000000000000000000000082169050919050565b611cca81611c95565b8114611cd557600080fd5b50565b600081359050611ce781611cc1565b92915050565b600060208284031215611d0357611d02611c15565b5b6000611d1184828501611cd8565b91505092915050565b60008115159050919050565b611d2f81611d1a565b82525050565b6000602082019050611d4a6000830184611d26565b92915050565b6000819050919050565b611d6381611d50565b8114611d6e57600080fd5b50565b600081359050611d8081611d5a565b92915050565b600060208284031215611d9c57611d9b611c15565b5b6000611daa84828501611d71565b91505092915050565b611dbc81611d50565b82525050565b6000602082019050611dd76000830184611db3565b92915050565b600073ffffffffffffffffffffffffffffffffffffffff82169050919050565b6000611e0882611ddd565b9050919050565b611e1881611dfd565b8114611e2357600080fd5b50565b600081359050611e3581611e0f565b92915050565b60008060408385031215611e5257611e51611c15565b5b6000611e6085828601611d71565b9250506020611e7185828601611e26565b9150509250929050565b611e8481611c1f565b82525050565b6000602082019050611e9f6000830184611e7b565b92915050565b600081519050919050565b600082825260208201905092915050565b6000819050602082019050919050565b611eda81611c1f565b82525050565b6000611eec8383611ed1565b60208301905092915050565b6000602082019050919050565b6000611f1082611ea5565b611f1a8185611eb0565b9350611f2583611ec1565b8060005b83811015611f56578151611f3d8882611ee0565b9750611f4883611ef8565b925050600181019050611f29565b5085935050505092915050565b60006020820190508181036000830152611f7d8184611f05565b905092915050565b611f8e81611dfd565b82525050565b6000602082019050611fa96000830184611f85565b92915050565b600081519050919050565b600082825260208201905092915050565b60005b83811015611fe9578082015181840152602081019050611fce565b83811115611ff8576000848401525b50505050565b6000601f19601f8301169050919050565b600061201a82611faf565b6120248185611fba565b9350612034818560208601611fcb565b61203d81611ffe565b840191505092915050565b60006020820190508181036000830152612062818461200f565b905092915050565b6000806040838503121561208157612080611c15565b5b600061208f85828601611d71565b92505060206120a085828601611c40565b9150509250929050565b600080fd5b7f4e487b7100000000000000000000000000000000000000000000000000000000600052604160045260246000fd5b6120e782611ffe565b810181811067ffffffffffffffff82111715612106576121056120af565b5b80604052505050565b6000612119611c0b565b905061212582826120de565b919050565b600067ffffffffffffffff821115612145576121446120af565b5b602082029050602081019050919050565b600080fd5b600061216e6121698461212a565b61210f565b9050808382526020820190506020840283018581111561219157612190612156565b5b835b818110156121ba57806121a68882611c40565b845260208401935050602081019050612193565b5050509392505050565b600082601f8301126121d9576121d86120aa565b5b81356121e984826020860161215b565b91505092915050565b6000806040838503121561220957612208611c15565b5b600061221785828601611c40565b925050602083013567ffffffffffffffff81111561223857612237611c1a565b5b612244858286016121c4565b9150509250929050565b60006020828403121561226457612263611c15565b5b600061227284828501611e26565b91505092915050565b7f416363657373436f6e74726f6c3a2063616e206f6e6c792072656e6f756e636560008201527f20726f6c657320666f722073656c660000000000000000000000000000000000602082015250565b60006122d7602f83611fba565b91506122e28261227b565b604082019050919050565b60006020820190508181036000830152612306816122ca565b9050919050565b7f4e487b7100000000000000000000000000000000000000000000000000000000600052603260045260246000fd5b7f4f6e6c7920565246436f6f7264696e61746f722063616e2066756c66696c6c00600082015250565b6000612372601f83611fba565b915061237d8261233c565b602082019050919050565b600060208201905081810360008301526123a181612365565b9050919050565b7f57484954455f4c49535400000000000000000000000000000000000000000000600082015250565b60006123de600a83611fba565b91506123e9826123a8565b602082019050919050565b6000602082019050818103600083015261240d816123d1565b9050919050565b7f4e4f545f4e4f5700000000000000000000000000000000000000000000000000600082015250565b600061244a600783611fba565b915061245582612414565b602082019050919050565b600060208201905081810360008301526124798161243d565b9050919050565b7f5061757361626c653a2070617573656400000000000000000000000000000000600082015250565b60006124b6601083611fba565b91506124c182612480565b602082019050919050565b600060208201905081810360008301526124e5816124a9565b9050919050565b7f494e56414c49445f5245534355455f4645450000000000000000000000000000600082015250565b6000612522601283611fba565b915061252d826124ec565b602082019050919050565b6000602082019050818103600083015261255181612515565b9050919050565b600060608201905061256d6000830186611f85565b61257a6020830185611f85565b6125876040830184611e7b565b949350505050565b61259881611d1a565b81146125a357600080fd5b50565b6000815190506125b58161258f565b92915050565b6000602082840312156125d1576125d0611c15565b5b60006125df848285016125a6565b91505092915050565b7f4e487b7100000000000000000000000000000000000000000000000000000000600052601160045260246000fd5b600061262282611c1f565b91507fffffffffffffffffffffffffffffffffffffffffffffffffffffffffffffffff821415612655576126546125e8565b5b600182019050919050565b60006040820190506126756000830185611f85565b6126826020830184611e7b565b9392505050565b600060608201905061269e6000830186611e7b565b6126ab6020830185611e7b565b6126b86040830184611e7b565b949350505050565b7f494e56414c49445f455343415045000000000000000000000000000000000000600082015250565b60006126f6600e83611fba565b9150612701826126c0565b602082019050919050565b60006020820190508181036000830152612725816126e9565b9050919050565b7f494e56414c49445f4d454d424552000000000000000000000000000000000000600082015250565b6000612762600e83611fba565b915061276d8261272c565b602082019050919050565b6000602082019050818103600083015261279181612755565b9050919050565b600081905092915050565b7f416363657373436f6e74726f6c3a206163636f756e7420000000000000000000600082015250565b60006127d9601783612798565b91506127e4826127a3565b601782019050919050565b60006127fa82611faf565b6128048185612798565b9350612814818560208601611fcb565b80840191505092915050565b7f206973206d697373696e6720726f6c6520000000000000000000000000000000600082015250565b6000612856601183612798565b915061286182612820565b601182019050919050565b6000612877826127cc565b915061288382856127ef565b915061288e82612849565b915061289a82846127ef565b91508190509392505050565b60006128b182611c1f565b91506128bc83611c1f565b9250827fffffffffffffffffffffffffffffffffffffffffffffffffffffffffffffffff038211156128f1576128f06125e8565b5b828201905092915050565b600061290782611c1f565b915061291283611c1f565b9250817fffffffffffffffffffffffffffffffffffffffffffffffffffffffffffffffff048311821515161561294b5761294a6125e8565b5b828202905092915050565b7f4e487b7100000000000000000000000000000000000000000000000000000000600052601260045260246000fd5b600061299082611c1f565b915061299b83611c1f565b9250826129ab576129aa612956565b5b828204905092915050565b6000819050919050565b6129d16129cc82611c1f565b6129b6565b82525050565b60006129e382856129c0565b6020820191506129f382846129c0565b6020820191508190509392505050565b6000612a0e82611c1f565b91506000821415612a2257612a216125e8565b5b600182039050919050565b7f537472696e67733a20686578206c656e67746820696e73756666696369656e74600082015250565b6000612a63602083611fba565b9150612a6e82612a2d565b602082019050919050565b60006020820190508181036000830152612a9281612a56565b9050919050565b6000612aa482611c1f565b9150612aaf83611c1f565b925082821015612ac257612ac16125e8565b5b828203905092915050565b6000612ad982846129c0565b60208201915081905092915050565b6000612af382611c1f565b9150612afe83611c1f565b925082612b0e57612b0d612956565b5b82820690509291505056fea26469706673582212207b170d8dedf70d938fc40a6f24afecd418b5fa3180706221b6b137f5da90c1c564736f6c63430008090033",
  "immutableReferences": {
    "75": [
      {
        "length": 32,
        "start": 2492
      }
    ],
    "3749": [
      {
        "length": 32,
        "start": 3131
      },
      {
        "length": 32,
        "start": 4618
      },
      {
        "length": 32,
        "start": 5242
      }
    ],
    "3751": [
      {
        "length": 32,
        "start": 2159
      },
      {
        "length": 32,
        "start": 4218
      }
    ]
  },
  "source": "// SPDX-License-Identifier: MIT\n\npragma solidity ^0.8.0;\n\nimport \"./EthRandom.sol\";\nimport \"@openzeppelin/contracts/access/AccessControl.sol\";\nimport \"@openzeppelin/contracts/security/Pausable.sol\";\n\nimport \"../dinosaur-token/Dinosaur.sol\";\nimport \"@openzeppelin/contracts/token/ERC20/IERC20.sol\";\nimport \"@openzeppelin/contracts/utils/math/SafeMath.sol\";\nimport \"@openzeppelin/contracts/utils/structs/EnumerableSet.sol\";\n\ncontract Salvation is EthRandom, Pausable, AccessControl {\n    using SafeMath for uint256;\n\n    struct FundShare { address member; uint256 share; }\n\n    struct StageCard {\n        uint256 startWith;\n        uint256 escapeCards;\n        uint256 normalCards;\n        uint256 memberTotal;\n        uint256 fee;\n        uint256 currentEscape;\n        uint256 currentNormal;\n        uint256 nextStageDelay;\n        uint256 expired;\n    }\n\n    string  constant public LASTEST_VERSION = \"v1.0.1\";\n    bytes32 constant public ADMIN_ROLE = keccak256(\"ADMIN_ROLE\");\n    address constant public BLACK_HOLE_ADDRESS = 0x000000000000000000000000000000000000dEaD;\n    address immutable public DINOSAUR_NFT_ADDRESS;\n    address immutable public RESCUE_TOKEN_ADDRESS;\n\n    FundShare[] private _funds;\n    uint256 public CURRENT_STAGE = 0;\n\n    mapping (address => bool) private _whiteList;\n    mapping (address => bool) private _minted;\n    mapping (uint256 => StageCard) private _stages;\n\n    event RescueDinosaur(uint256 tokenId, uint256 stageRound, uint256 fee);\n\n    constructor(\n        address dinosaurNFT, address USDTAddress,\n        address[] memory fundAddress, uint256[] memory fundShares,\n        uint256[] memory totalCards, uint256[] memory escapeCards,\n        uint256[] memory memberTotals\n    ) {\n        DINOSAUR_NFT_ADDRESS = dinosaurNFT;\n        RESCUE_TOKEN_ADDRESS = USDTAddress;\n\n        uint256 totalCount = 0;\n        for (uint256 index = 0; index < fundAddress.length; index++) {\n            _funds.push(FundShare(fundAddress[index], fundShares[index]));\n        }\n\n        for (uint256 index = 0; index < totalCards.length; index++) {\n            _stages[index] = StageCard(\n                0, escapeCards[index], totalCards[index] - escapeCards[index],\n                memberTotals[index], index == 0 ? 0 : 5e16, 0, 0, 259200, 0\n            );\n\n            totalCount = totalCount + totalCards[index];\n            if (index > 0) _stages[index].startWith = totalCount;\n            else _stages[index].expired = block.timestamp;\n        }\n\n        _grantRole(ADMIN_ROLE, _msgSender());\n    }\n\n    function calculateTokenId(uint256 random) private returns (uint256) {\n        StageCard storage stage = _stages[CURRENT_STAGE];\n        uint256 escapeRange = stage.escapeCards.sub(stage.currentEscape);\n        uint256 normalRange = stage.normalCards.sub(stage.currentNormal);\n        uint256 randomResult = getRandomBySeed(random, escapeRange.add(normalRange));\n\n        if (randomResult <= escapeRange) {\n            stage.currentEscape = stage.currentEscape.add(1);\n            return stage.currentEscape.add(stage.startWith);\n        } else {\n            stage.currentNormal = stage.currentNormal.add(1);\n            return stage.currentNormal.add(stage.escapeCards);\n        }\n    }\n\n    function isEscapeCard(uint256 stage, uint256 tokenId) public view returns (bool) {\n        StageCard memory stageCard = _stages[stage];\n        return tokenId >= stageCard.startWith && tokenId < stageCard.escapeCards;\n    }\n\n    function rescueForFree(uint256 escapeCard, uint256[] memory normalCards) private {\n        StageCard memory stageCard = _stages[CURRENT_STAGE];\n        require(isEscapeCard(CURRENT_STAGE, escapeCard), \"INVALID_ESCAPE\");\n        require(normalCards.length == stageCard.memberTotal, \"INVALID_MEMBER\");\n\n        Dinosaur dinosaurNFT = Dinosaur(DINOSAUR_NFT_ADDRESS);\n        dinosaurNFT.transferFrom(_msgSender(), BLACK_HOLE_ADDRESS, escapeCard);\n        for (uint256 i = 0; i < normalCards.length; i++)\n            dinosaurNFT.transferFrom(_msgSender(), BLACK_HOLE_ADDRESS, normalCards[i]);\n\n        uint256 tokenId = calculateTokenId(getRandomNumber());\n        dinosaurNFT.mintTokenTo(_msgSender(), tokenId);\n\n        emit RescueDinosaur(tokenId, CURRENT_STAGE, stageCard.fee);\n    }\n\n    function rescueForFee() private {\n        StageCard memory stageCard = _stages[CURRENT_STAGE];\n        require(msg.value >= stageCard.fee, \"INVALID_RESCUE_FEE\");\n        bool expired = block.timestamp >= stageCard.expired.add(stageCard.nextStageDelay);\n        require((CURRENT_STAGE != 0 && expired) || stageCard.expired == 0, \"NOT_NOW\");\n\n        if (stageCard.fee > 0) {\n            IERC20 rescueToken = IERC20(RESCUE_TOKEN_ADDRESS);\n            for (uint256 index = 0; index < _funds.length; index++) {\n                uint256 fee = stageCard.fee.mul(10000).div(_funds[index].share);\n                rescueToken.transferFrom(_msgSender(), _funds[index].member, fee.div(10000));\n            }\n        }\n\n        Dinosaur dinosaurNFT = Dinosaur(DINOSAUR_NFT_ADDRESS);\n        uint256 tokenId = calculateTokenId(getRandomNumber());\n        dinosaurNFT.mintTokenTo(_msgSender(), tokenId);\n        if (CURRENT_STAGE == 0) _minted[_msgSender()] = true;\n\n        emit RescueDinosaur(tokenId, CURRENT_STAGE, stageCard.fee);\n    }\n\n    function getStageDetail() external view returns (uint256[] memory stage) {\n        stage = new uint256[](9);\n        stage[0] = _stages[CURRENT_STAGE].startWith;\n        stage[1] = _stages[CURRENT_STAGE].escapeCards;\n        stage[2] = _stages[CURRENT_STAGE].normalCards;\n        stage[3] = _stages[CURRENT_STAGE].memberTotal;\n        stage[4] = _stages[CURRENT_STAGE].fee;\n        stage[5] = _stages[CURRENT_STAGE].currentEscape;\n        stage[6] = _stages[CURRENT_STAGE].currentNormal;\n        stage[7] = _stages[CURRENT_STAGE].nextStageDelay;\n        stage[8] = _stages[CURRENT_STAGE].expired;\n    }\n\n    function addWhiteList(address account) external onlyRole(ADMIN_ROLE) {\n        _whiteList[account] = true;\n    }\n\n    function setStageDelay(uint256 stage, uint256 delay) external onlyRole(ADMIN_ROLE) {\n        _stages[stage].nextStageDelay = delay;\n    }\n\n    function setStageRescueFee(uint256 stage, uint256 fee) external onlyRole(ADMIN_ROLE) {\n        _stages[stage].fee = fee;\n    }\n\n    function rescueDinosaur(uint256 escapeCard, uint256[] memory normalCards)\n        external whenNotPaused {\n\n        require(_whiteList[_msgSender()] || CURRENT_STAGE != 0, \"WHITE_LIST\");\n        // require(_minted[_msgSender()] == false || CURRENT_STAGE != 0, \"ONLY_ONCE\");\n        require(CURRENT_STAGE == 0 || _stages[CURRENT_STAGE].expired == 0, \"NOT_NOW\");\n\n        if (escapeCard <= 0) rescueForFee();\n        else rescueForFree(escapeCard, normalCards);\n    }\n}",
  "sourcePath": "/Users/cea/Projects/shandie/dinosaur-dapp/contracts/dinosaur-core/Salvation.sol",
  "compiler": {
    "name": "solc",
    "version": "0.8.9+commit.e5eed63a.Emscripten.clang"
  },
  "schemaVersion": "3.4.3",
  "updatedAt": "2022-07-06T01:23:53.804Z",
  "networkType": "ethereum",
  "devdoc": {
    "kind": "dev",
    "methods": {
      "getRoleAdmin(bytes32)": {
        "details": "Returns the admin role that controls `role`. See {grantRole} and {revokeRole}. To change a role's admin, use {_setRoleAdmin}."
      },
      "grantRole(bytes32,address)": {
        "details": "Grants `role` to `account`. If `account` had not been already granted `role`, emits a {RoleGranted} event. Requirements: - the caller must have ``role``'s admin role. May emit a {RoleGranted} event."
      },
      "hasRole(bytes32,address)": {
        "details": "Returns `true` if `account` has been granted `role`."
      },
      "paused()": {
        "details": "Returns true if the contract is paused, and false otherwise."
      },
      "renounceRole(bytes32,address)": {
        "details": "Revokes `role` from the calling account. Roles are often managed via {grantRole} and {revokeRole}: this function's purpose is to provide a mechanism for accounts to lose their privileges if they are compromised (such as when a trusted device is misplaced). If the calling account had been revoked `role`, emits a {RoleRevoked} event. Requirements: - the caller must be `account`. May emit a {RoleRevoked} event."
      },
      "revokeRole(bytes32,address)": {
        "details": "Revokes `role` from `account`. If `account` had been granted `role`, emits a {RoleRevoked} event. Requirements: - the caller must have ``role``'s admin role. May emit a {RoleRevoked} event."
      },
      "supportsInterface(bytes4)": {
        "details": "See {IERC165-supportsInterface}."
      }
    },
    "version": 1
  },
  "userdoc": {
    "kind": "user",
    "methods": {},
    "version": 1
  }
}